{
  "contractName": "SimEvent",
  "abi": [
    {
      "inputs": [],
      "stateMutability": "nonpayable",
      "type": "constructor"
    },
    {
      "anonymous": false,
      "inputs": [
        {
          "indexed": false,
          "internalType": "uint256",
          "name": "num",
          "type": "uint256"
        },
        {
          "indexed": false,
          "internalType": "string",
          "name": "text",
          "type": "string"
        }
      ],
      "name": "MyEvent",
      "type": "event"
    },
    {
      "inputs": [
        {
          "internalType": "uint256",
          "name": "n",
          "type": "uint256"
        },
        {
          "internalType": "string",
          "name": "t",
          "type": "string"
        }
      ],
      "name": "raiseMyEvent",
      "outputs": [],
      "stateMutability": "nonpayable",
      "type": "function"
    }
  ],
  "bytecode": "0x608060405234801561001057600080fd5b50610372806100206000396000f3fe608060405234801561001057600080fd5b506004361061002b5760003560e01c8063f358664c14610030575b600080fd5b61004a60048036038101906100459190610219565b61004c565b005b7f1274f55e9fcce41929ca5d53fe948f2d3ef947ede0e66f26d67e76fc2fec5f31828260405161007d92919061030c565b60405180910390a15050565b6000604051905090565b600080fd5b600080fd5b6000819050919050565b6100b08161009d565b81146100bb57600080fd5b50565b6000813590506100cd816100a7565b92915050565b600080fd5b600080fd5b6000601f19601f8301169050919050565b7f4e487b7100000000000000000000000000000000000000000000000000000000600052604160045260246000fd5b610126826100dd565b810181811067ffffffffffffffff82111715610145576101446100ee565b5b80604052505050565b6000610158610089565b9050610164828261011d565b919050565b600067ffffffffffffffff821115610184576101836100ee565b5b61018d826100dd565b9050602081019050919050565b82818337600083830152505050565b60006101bc6101b784610169565b61014e565b9050828152602081018484840111156101d8576101d76100d8565b5b6101e384828561019a565b509392505050565b600082601f830112610200576101ff6100d3565b5b81356102108482602086016101a9565b91505092915050565b600080604083850312156102305761022f610093565b5b600061023e858286016100be565b925050602083013567ffffffffffffffff81111561025f5761025e610098565b5b61026b858286016101eb565b9150509250929050565b61027e8161009d565b82525050565b600081519050919050565b600082825260208201905092915050565b60005b838110156102be5780820151818401526020810190506102a3565b838111156102cd576000848401525b50505050565b60006102de82610284565b6102e8818561028f565b93506102f88185602086016102a0565b610301816100dd565b840191505092915050565b60006040820190506103216000830185610275565b818103602083015261033381846102d3565b9050939250505056fea26469706673582212208a87dc7d603a732b2a788d6a54acddb52b98b6bb34c9b52aae5805fa65d77d0364736f6c634300080e0033",
  "immutableReferences": {},
  "source": "// contracts/GLDToken.sol\r\n// SPDX-License-Identifier: MIT\r\npragma solidity ^0.8.0;\r\n\r\nimport \"@openzeppelin/contracts/token/ERC777/ERC777.sol\";\r\n\r\ncontract SimEvent {\r\n\r\n    event MyEvent(uint num, string text);\r\n\r\n    constructor()\r\n    {\r\n    }\r\n\r\n    function raiseMyEvent(uint n, string memory t) public {\r\n        emit MyEvent(n, t);\r\n    }\r\n}",
  "sourcePath": "R:\\g\\SimpleOracle\\onchain\\OracleSamples\\contracts\\SimEvent.sol",
  "compiler": {
    "name": "solc",
    "version": "0.8.14+commit.80d49f37.Emscripten.clang"
  },
  "schemaVersion": "3.4.7",
  "updatedAt": "2022-06-16T07:00:30.831Z",
  "devdoc": {
    "kind": "dev",
    "methods": {},
    "version": 1
  },
  "userdoc": {
    "kind": "user",
    "methods": {},
    "version": 1
  }
}